{
  "_format": "hh-sol-artifact-1",
  "contractName": "Nftmart",
  "sourceName": "contracts/Nftmart.sol",
  "abi": [
    {
      "inputs": [
        {
          "internalType": "uint256",
          "name": "_pct",
          "type": "uint256"
        }
      ],
      "stateMutability": "nonpayable",
      "type": "constructor"
    },
    {
      "anonymous": false,
      "inputs": [
        {
          "indexed": true,
          "internalType": "address",
          "name": "owner",
          "type": "address"
        },
        {
          "indexed": true,
          "internalType": "address",
          "name": "approved",
          "type": "address"
        },
        {
          "indexed": true,
          "internalType": "uint256",
          "name": "tokenId",
          "type": "uint256"
        }
      ],
      "name": "Approval",
      "type": "event"
    },
    {
      "anonymous": false,
      "inputs": [
        {
          "indexed": true,
          "internalType": "address",
          "name": "owner",
          "type": "address"
        },
        {
          "indexed": true,
          "internalType": "address",
          "name": "operator",
          "type": "address"
        },
        {
          "indexed": false,
          "internalType": "bool",
          "name": "approved",
          "type": "bool"
        }
      ],
      "name": "ApprovalForAll",
      "type": "event"
    },
    {
      "anonymous": false,
      "inputs": [
        {
          "indexed": true,
          "internalType": "uint256",
          "name": "nftId",
          "type": "uint256"
        },
        {
          "indexed": true,
          "internalType": "address",
          "name": "owner",
          "type": "address"
        },
        {
          "indexed": false,
          "internalType": "uint256",
          "name": "payoutAmount",
          "type": "uint256"
        },
        {
          "indexed": false,
          "internalType": "uint256",
          "name": "serviceAmount",
          "type": "uint256"
        }
      ],
      "name": "NftPaidOut",
      "type": "event"
    },
    {
      "anonymous": false,
      "inputs": [
        {
          "indexed": true,
          "internalType": "uint256",
          "name": "nftId",
          "type": "uint256"
        },
        {
          "indexed": true,
          "internalType": "address",
          "name": "seller",
          "type": "address"
        },
        {
          "indexed": true,
          "internalType": "address",
          "name": "buyer",
          "type": "address"
        },
        {
          "indexed": false,
          "internalType": "uint256",
          "name": "price",
          "type": "uint256"
        }
      ],
      "name": "NftSold",
      "type": "event"
    },
    {
      "anonymous": false,
      "inputs": [
        {
          "indexed": true,
          "internalType": "address",
          "name": "previousOwner",
          "type": "address"
        },
        {
          "indexed": true,
          "internalType": "address",
          "name": "newOwner",
          "type": "address"
        }
      ],
      "name": "OwnershipTransferred",
      "type": "event"
    },
    {
      "anonymous": false,
      "inputs": [
        {
          "indexed": true,
          "internalType": "address",
          "name": "from",
          "type": "address"
        },
        {
          "indexed": true,
          "internalType": "address",
          "name": "to",
          "type": "address"
        },
        {
          "indexed": true,
          "internalType": "uint256",
          "name": "tokenId",
          "type": "uint256"
        }
      ],
      "name": "Transfer",
      "type": "event"
    },
    {
      "inputs": [
        {
          "internalType": "address",
          "name": "to",
          "type": "address"
        },
        {
          "internalType": "uint256",
          "name": "tokenId",
          "type": "uint256"
        }
      ],
      "name": "approve",
      "outputs": [],
      "stateMutability": "nonpayable",
      "type": "function"
    },
    {
      "inputs": [],
      "name": "balance",
      "outputs": [
        {
          "internalType": "uint256",
          "name": "",
          "type": "uint256"
        }
      ],
      "stateMutability": "view",
      "type": "function"
    },
    {
      "inputs": [
        {
          "internalType": "address",
          "name": "owner",
          "type": "address"
        }
      ],
      "name": "balanceOf",
      "outputs": [
        {
          "internalType": "uint256",
          "name": "",
          "type": "uint256"
        }
      ],
      "stateMutability": "view",
      "type": "function"
    },
    {
      "inputs": [
        {
          "internalType": "uint256",
          "name": "nftId",
          "type": "uint256"
        }
      ],
      "name": "buyNft",
      "outputs": [],
      "stateMutability": "payable",
      "type": "function"
    },
    {
      "inputs": [
        {
          "internalType": "string",
          "name": "name",
          "type": "string"
        },
        {
          "internalType": "string",
          "name": "description",
          "type": "string"
        },
        {
          "internalType": "string",
          "name": "imageUrl",
          "type": "string"
        },
        {
          "internalType": "uint256",
          "name": "endTime",
          "type": "uint256"
        },
        {
          "internalType": "uint256",
          "name": "price",
          "type": "uint256"
        }
      ],
      "name": "createNft",
      "outputs": [],
      "stateMutability": "nonpayable",
      "type": "function"
    },
    {
      "inputs": [
        {
          "internalType": "uint256",
          "name": "nftId",
          "type": "uint256"
        }
      ],
      "name": "deleteNft",
      "outputs": [],
      "stateMutability": "nonpayable",
      "type": "function"
    },
    {
      "inputs": [],
      "name": "getAllNfts",
      "outputs": [
        {
          "components": [
            {
              "internalType": "uint256",
              "name": "id",
              "type": "uint256"
            },
            {
              "internalType": "string",
              "name": "name",
              "type": "string"
            },
            {
              "internalType": "string",
              "name": "imageUrl",
              "type": "string"
            },
            {
              "internalType": "string",
              "name": "description",
              "type": "string"
            },
            {
              "internalType": "address",
              "name": "owner",
              "type": "address"
            },
            {
              "internalType": "uint256",
              "name": "price",
              "type": "uint256"
            },
            {
              "internalType": "uint256",
              "name": "timestamp",
              "type": "uint256"
            },
            {
              "internalType": "uint256",
              "name": "endTime",
              "type": "uint256"
            },
            {
              "internalType": "bool",
              "name": "deleted",
              "type": "bool"
            },
            {
              "internalType": "bool",
              "name": "minted",
              "type": "bool"
            },
            {
              "internalType": "bool",
              "name": "paidOut",
              "type": "bool"
            },
            {
              "internalType": "bool",
              "name": "refunded",
              "type": "bool"
            }
          ],
          "internalType": "struct Nftmart.NftStruct[]",
          "name": "Nfts",
          "type": "tuple[]"
        }
      ],
      "stateMutability": "view",
      "type": "function"
    },
    {
      "inputs": [],
      "name": "getAllSales",
      "outputs": [
        {
          "components": [
            {
              "internalType": "uint256",
              "name": "id",
              "type": "uint256"
            },
            {
              "internalType": "uint256",
              "name": "nftId",
              "type": "uint256"
            },
            {
              "internalType": "address",
              "name": "owner",
              "type": "address"
            },
            {
              "internalType": "uint256",
              "name": "price",
              "type": "uint256"
            },
            {
              "internalType": "uint256",
              "name": "timestamp",
              "type": "uint256"
            },
            {
              "internalType": "uint256",
              "name": "endTime",
              "type": "uint256"
            },
            {
              "internalType": "bool",
              "name": "minted",
              "type": "bool"
            },
            {
              "internalType": "bool",
              "name": "refunded",
              "type": "bool"
            }
          ],
          "internalType": "struct Nftmart.SalesStruct[]",
          "name": "Sales",
          "type": "tuple[]"
        }
      ],
      "stateMutability": "view",
      "type": "function"
    },
    {
      "inputs": [
        {
          "internalType": "uint256",
          "name": "tokenId",
          "type": "uint256"
        }
      ],
      "name": "getApproved",
      "outputs": [
        {
          "internalType": "address",
          "name": "",
          "type": "address"
        }
      ],
      "stateMutability": "view",
      "type": "function"
    },
    {
      "inputs": [],
      "name": "getMyNfts",
      "outputs": [
        {
          "components": [
            {
              "internalType": "uint256",
              "name": "id",
              "type": "uint256"
            },
            {
              "internalType": "string",
              "name": "name",
              "type": "string"
            },
            {
              "internalType": "string",
              "name": "imageUrl",
              "type": "string"
            },
            {
              "internalType": "string",
              "name": "description",
              "type": "string"
            },
            {
              "internalType": "address",
              "name": "owner",
              "type": "address"
            },
            {
              "internalType": "uint256",
              "name": "price",
              "type": "uint256"
            },
            {
              "internalType": "uint256",
              "name": "timestamp",
              "type": "uint256"
            },
            {
              "internalType": "uint256",
              "name": "endTime",
              "type": "uint256"
            },
            {
              "internalType": "bool",
              "name": "deleted",
              "type": "bool"
            },
            {
              "internalType": "bool",
              "name": "minted",
              "type": "bool"
            },
            {
              "internalType": "bool",
              "name": "paidOut",
              "type": "bool"
            },
            {
              "internalType": "bool",
              "name": "refunded",
              "type": "bool"
            }
          ],
          "internalType": "struct Nftmart.NftStruct[]",
          "name": "Nfts",
          "type": "tuple[]"
        }
      ],
      "stateMutability": "view",
      "type": "function"
    },
    {
      "inputs": [],
      "name": "getMySales",
      "outputs": [
        {
          "components": [
            {
              "internalType": "uint256",
              "name": "id",
              "type": "uint256"
            },
            {
              "internalType": "uint256",
              "name": "nftId",
              "type": "uint256"
            },
            {
              "internalType": "address",
              "name": "owner",
              "type": "address"
            },
            {
              "internalType": "uint256",
              "name": "price",
              "type": "uint256"
            },
            {
              "internalType": "uint256",
              "name": "timestamp",
              "type": "uint256"
            },
            {
              "internalType": "uint256",
              "name": "endTime",
              "type": "uint256"
            },
            {
              "internalType": "bool",
              "name": "minted",
              "type": "bool"
            },
            {
              "internalType": "bool",
              "name": "refunded",
              "type": "bool"
            }
          ],
          "internalType": "struct Nftmart.SalesStruct[]",
          "name": "Sales",
          "type": "tuple[]"
        }
      ],
      "stateMutability": "view",
      "type": "function"
    },
    {
      "inputs": [
        {
          "internalType": "uint256",
          "name": "nftId",
          "type": "uint256"
        }
      ],
      "name": "getSales",
      "outputs": [
        {
          "components": [
            {
              "internalType": "uint256",
              "name": "id",
              "type": "uint256"
            },
            {
              "internalType": "uint256",
              "name": "nftId",
              "type": "uint256"
            },
            {
              "internalType": "address",
              "name": "owner",
              "type": "address"
            },
            {
              "internalType": "uint256",
              "name": "price",
              "type": "uint256"
            },
            {
              "internalType": "uint256",
              "name": "timestamp",
              "type": "uint256"
            },
            {
              "internalType": "uint256",
              "name": "endTime",
              "type": "uint256"
            },
            {
              "internalType": "bool",
              "name": "minted",
              "type": "bool"
            },
            {
              "internalType": "bool",
              "name": "refunded",
              "type": "bool"
            }
          ],
          "internalType": "struct Nftmart.SalesStruct[]",
          "name": "Sales",
          "type": "tuple[]"
        }
      ],
      "stateMutability": "view",
      "type": "function"
    },
    {
      "inputs": [
        {
          "internalType": "uint256",
          "name": "nftId",
          "type": "uint256"
        }
      ],
      "name": "getSingleNft",
      "outputs": [
        {
          "components": [
            {
              "internalType": "uint256",
              "name": "id",
              "type": "uint256"
            },
            {
              "internalType": "string",
              "name": "name",
              "type": "string"
            },
            {
              "internalType": "string",
              "name": "imageUrl",
              "type": "string"
            },
            {
              "internalType": "string",
              "name": "description",
              "type": "string"
            },
            {
              "internalType": "address",
              "name": "owner",
              "type": "address"
            },
            {
              "internalType": "uint256",
              "name": "price",
              "type": "uint256"
            },
            {
              "internalType": "uint256",
              "name": "timestamp",
              "type": "uint256"
            },
            {
              "internalType": "uint256",
              "name": "endTime",
              "type": "uint256"
            },
            {
              "internalType": "bool",
              "name": "deleted",
              "type": "bool"
            },
            {
              "internalType": "bool",
              "name": "minted",
              "type": "bool"
            },
            {
              "internalType": "bool",
              "name": "paidOut",
              "type": "bool"
            },
            {
              "internalType": "bool",
              "name": "refunded",
              "type": "bool"
            }
          ],
          "internalType": "struct Nftmart.NftStruct",
          "name": "",
          "type": "tuple"
        }
      ],
      "stateMutability": "view",
      "type": "function"
    },
    {
      "inputs": [
        {
          "internalType": "address",
          "name": "owner",
          "type": "address"
        },
        {
          "internalType": "address",
          "name": "operator",
          "type": "address"
        }
      ],
      "name": "isApprovedForAll",
      "outputs": [
        {
          "internalType": "bool",
          "name": "",
          "type": "bool"
        }
      ],
      "stateMutability": "view",
      "type": "function"
    },
    {
      "inputs": [],
      "name": "name",
      "outputs": [
        {
          "internalType": "string",
          "name": "",
          "type": "string"
        }
      ],
      "stateMutability": "view",
      "type": "function"
    },
    {
      "inputs": [],
      "name": "owner",
      "outputs": [
        {
          "internalType": "address",
          "name": "",
          "type": "address"
        }
      ],
      "stateMutability": "view",
      "type": "function"
    },
    {
      "inputs": [
        {
          "internalType": "uint256",
          "name": "tokenId",
          "type": "uint256"
        }
      ],
      "name": "ownerOf",
      "outputs": [
        {
          "internalType": "address",
          "name": "",
          "type": "address"
        }
      ],
      "stateMutability": "view",
      "type": "function"
    },
    {
      "inputs": [
        {
          "internalType": "uint256",
          "name": "nftId",
          "type": "uint256"
        }
      ],
      "name": "payout",
      "outputs": [],
      "stateMutability": "nonpayable",
      "type": "function"
    },
    {
      "inputs": [],
      "name": "renounceOwnership",
      "outputs": [],
      "stateMutability": "nonpayable",
      "type": "function"
    },
    {
      "inputs": [
        {
          "internalType": "address",
          "name": "from",
          "type": "address"
        },
        {
          "internalType": "address",
          "name": "to",
          "type": "address"
        },
        {
          "internalType": "uint256",
          "name": "tokenId",
          "type": "uint256"
        }
      ],
      "name": "safeTransferFrom",
      "outputs": [],
      "stateMutability": "nonpayable",
      "type": "function"
    },
    {
      "inputs": [
        {
          "internalType": "address",
          "name": "from",
          "type": "address"
        },
        {
          "internalType": "address",
          "name": "to",
          "type": "address"
        },
        {
          "internalType": "uint256",
          "name": "tokenId",
          "type": "uint256"
        },
        {
          "internalType": "bytes",
          "name": "data",
          "type": "bytes"
        }
      ],
      "name": "safeTransferFrom",
      "outputs": [],
      "stateMutability": "nonpayable",
      "type": "function"
    },
    {
      "inputs": [],
      "name": "servicePct",
      "outputs": [
        {
          "internalType": "uint256",
          "name": "",
          "type": "uint256"
        }
      ],
      "stateMutability": "view",
      "type": "function"
    },
    {
      "inputs": [
        {
          "internalType": "address",
          "name": "operator",
          "type": "address"
        },
        {
          "internalType": "bool",
          "name": "approved",
          "type": "bool"
        }
      ],
      "name": "setApprovalForAll",
      "outputs": [],
      "stateMutability": "nonpayable",
      "type": "function"
    },
    {
      "inputs": [
        {
          "internalType": "bytes4",
          "name": "interfaceId",
          "type": "bytes4"
        }
      ],
      "name": "supportsInterface",
      "outputs": [
        {
          "internalType": "bool",
          "name": "",
          "type": "bool"
        }
      ],
      "stateMutability": "view",
      "type": "function"
    },
    {
      "inputs": [],
      "name": "symbol",
      "outputs": [
        {
          "internalType": "string",
          "name": "",
          "type": "string"
        }
      ],
      "stateMutability": "view",
      "type": "function"
    },
    {
      "inputs": [
        {
          "internalType": "uint256",
          "name": "tokenId",
          "type": "uint256"
        }
      ],
      "name": "tokenURI",
      "outputs": [
        {
          "internalType": "string",
          "name": "",
          "type": "string"
        }
      ],
      "stateMutability": "view",
      "type": "function"
    },
    {
      "inputs": [
        {
          "internalType": "address",
          "name": "from",
          "type": "address"
        },
        {
          "internalType": "address",
          "name": "to",
          "type": "address"
        },
        {
          "internalType": "uint256",
          "name": "tokenId",
          "type": "uint256"
        }
      ],
      "name": "transferFrom",
      "outputs": [],
      "stateMutability": "nonpayable",
      "type": "function"
    },
    {
      "inputs": [
        {
          "internalType": "uint256",
          "name": "nftId",
          "type": "uint256"
        },
        {
          "internalType": "address",
          "name": "newOwner",
          "type": "address"
        }
      ],
      "name": "transferOwnership",
      "outputs": [],
      "stateMutability": "nonpayable",
      "type": "function"
    },
    {
      "inputs": [
        {
          "internalType": "address",
          "name": "newOwner",
          "type": "address"
        }
      ],
      "name": "transferOwnership",
      "outputs": [],
      "stateMutability": "nonpayable",
      "type": "function"
    },
    {
      "inputs": [
        {
          "internalType": "uint256",
          "name": "nftId",
          "type": "uint256"
        },
        {
          "internalType": "string",
          "name": "name",
          "type": "string"
        },
        {
          "internalType": "string",
          "name": "description",
          "type": "string"
        },
        {
          "internalType": "string",
          "name": "imageUrl",
          "type": "string"
        },
        {
          "internalType": "uint256",
          "name": "endTime",
          "type": "uint256"
        },
        {
          "internalType": "uint256",
          "name": "price",
          "type": "uint256"
        }
      ],
      "name": "updateNft",
      "outputs": [],
      "stateMutability": "nonpayable",
      "type": "function"
    }
  ],
  "bytecode": "0x60806040523480156200001157600080fd5b5060405162003f7438038062003f74833981016040819052620000349162000110565b6040518060400160405280600781526020016613999d1b585c9d60ca1b815250604051806040016040528060028152602001614e4d60f01b8152508160009081620000809190620001cf565b5060016200008f8282620001cf565b505050620000ac620000a6620000ba60201b60201c565b620000be565b6001600755600b556200029b565b3390565b600680546001600160a01b038381166001600160a01b0319831681179093556040519116919082907f8be0079c531659141344cd1fd0a4f28419497f9722a3daafe3b4186f6b6457e090600090a35050565b6000602082840312156200012357600080fd5b5051919050565b634e487b7160e01b600052604160045260246000fd5b600181811c908216806200015557607f821691505b6020821081036200017657634e487b7160e01b600052602260045260246000fd5b50919050565b601f821115620001ca57600081815260208120601f850160051c81016020861015620001a55750805b601f850160051c820191505b81811015620001c657828155600101620001b1565b5050505b505050565b81516001600160401b03811115620001eb57620001eb6200012a565b6200020381620001fc845462000140565b846200017c565b602080601f8311600181146200023b5760008415620002225750858301515b600019600386901b1c1916600185901b178555620001c6565b600085815260208120601f198616915b828110156200026c578886015182559484019460019091019084016200024b565b50858210156200028b5787850151600019600388901b60f8161c191681555b5050505050600190811b01905550565b613cc980620002ab6000396000f3fe6080604052600436106101cd5760003560e01c8063732e8d73116100f7578063c87b56dd11610095578063e985e9c511610064578063e985e9c51461051e578063ebadff691461053e578063f2fde38b14610553578063f6b157a81461057357600080fd5b8063c87b56dd1461049b578063d5448d57146104bb578063e01ef6e6146104e8578063e1152343146104fe57600080fd5b806395d89b41116100d157806395d89b4114610430578063a22cb46514610445578063b69ef8a814610465578063b88d4fde1461047b57600080fd5b8063732e8d73146103dd57806378815520146103f25780638da5cb5b1461041257600080fd5b8063243adbdd1161016f5780636352211e1161013e5780636352211e1461035a5780636f905b781461037a57806370a082311461039a578063715018a6146103c857600080fd5b8063243adbdd146102e557806329507f73146102f8578063333969171461031857806342842e0e1461033a57600080fd5b8063081812fc116101ab578063081812fc1461024b578063095ea7b31461028357806322ee3ffe146102a557806323b872dd146102c557600080fd5b806301ffc9a7146101d2578063047b07bf1461020757806306fdde0314610229575b600080fd5b3480156101de57600080fd5b506101f26101ed36600461327f565b610593565b60405190151581526020015b60405180910390f35b34801561021357600080fd5b5061021c6105e5565b6040516101fe91906133c1565b34801561023557600080fd5b5061023e61098c565b6040516101fe9190613423565b34801561025757600080fd5b5061026b610266366004613436565b610a1e565b6040516001600160a01b0390911681526020016101fe565b34801561028f57600080fd5b506102a361029e36600461346b565b610a45565b005b3480156102b157600080fd5b506102a36102c0366004613541565b610b5f565b3480156102d157600080fd5b506102a36102e03660046135db565b610e5f565b6102a36102f3366004613436565b610e90565b34801561030457600080fd5b506102a3610313366004613617565b6111e4565b34801561032457600080fd5b5061032d6112f5565b6040516101fe9190613643565b34801561034657600080fd5b506102a36103553660046135db565b61149e565b34801561036657600080fd5b5061026b610375366004613436565b6114b9565b34801561038657600080fd5b5061032d610395366004613436565b611519565b3480156103a657600080fd5b506103ba6103b53660046136dd565b6115ea565b6040519081526020016101fe565b3480156103d457600080fd5b506102a3611670565b3480156103e957600080fd5b5061021c611684565b3480156103fe57600080fd5b506102a361040d3660046136f8565b6119df565b34801561041e57600080fd5b506006546001600160a01b031661026b565b34801561043c57600080fd5b5061023e611c53565b34801561045157600080fd5b506102a361046036600461379c565b611c62565b34801561047157600080fd5b506103ba600c5481565b34801561048757600080fd5b506102a36104963660046137d8565b611c71565b3480156104a757600080fd5b5061023e6104b6366004613436565b611ca9565b3480156104c757600080fd5b506104db6104d6366004613436565b611d1d565b6040516101fe9190613854565b3480156104f457600080fd5b506103ba600b5481565b34801561050a57600080fd5b506102a3610519366004613436565b611fa6565b34801561052a57600080fd5b506101f2610539366004613867565b6122a6565b34801561054a57600080fd5b5061032d6122d4565b34801561055f57600080fd5b506102a361056e3660046136dd565b612526565b34801561057f57600080fd5b506102a361058e366004613436565b61259c565b60006001600160e01b031982166380ac58cd60e01b14806105c457506001600160e01b03198216635b5e139f60e01b145b806105df57506301ffc9a760e01b6001600160e01b03198316145b92915050565b6060600060015b6008548111610655576000818152600d602052604090206008015460ff1615801561063057506000818152600d60205260409020600401546001600160a01b031633145b15610643578161063f816138a7565b9250505b8061064d816138a7565b9150506105ec565b508067ffffffffffffffff81111561066f5761066f613495565b6040519080825280602002602001820160405280156106a857816020015b6106956131a5565b81526020019060019003908161068d5790505b509150600060015b6008548111610986576000818152600d602052604090206008015460ff161580156106f457506000818152600d60205260409020600401546001600160a01b031633145b1561097457600d60008281526020019081526020016000206040518061018001604052908160008201548152602001600182018054610732906138c0565b80601f016020809104026020016040519081016040528092919081815260200182805461075e906138c0565b80156107ab5780601f10610780576101008083540402835291602001916107ab565b820191906000526020600020905b81548152906001019060200180831161078e57829003601f168201915b505050505081526020016002820180546107c4906138c0565b80601f01602080910402602001604051908101604052809291908181526020018280546107f0906138c0565b801561083d5780601f106108125761010080835404028352916020019161083d565b820191906000526020600020905b81548152906001019060200180831161082057829003601f168201915b50505050508152602001600382018054610856906138c0565b80601f0160208091040260200160405190810160405280929190818152602001828054610882906138c0565b80156108cf5780601f106108a4576101008083540402835291602001916108cf565b820191906000526020600020905b8154815290600101906020018083116108b257829003601f168201915b505050918352505060048201546001600160a01b0316602082015260058201546040820152600682015460608201526007820154608082015260089091015460ff808216151560a08401526101008083048216151560c08501526201000083048216151560e08501526301000000909204161515910152845185908490811061095a5761095a6138fa565b60200260200101819052508180610970906138a7565b9250505b8061097e816138a7565b9150506106b0565b50505090565b60606000805461099b906138c0565b80601f01602080910402602001604051908101604052809291908181526020018280546109c7906138c0565b8015610a145780601f106109e957610100808354040283529160200191610a14565b820191906000526020600020905b8154815290600101906020018083116109f757829003601f168201915b5050505050905090565b6000610a2982612733565b506000908152600460205260409020546001600160a01b031690565b6000610a50826114b9565b9050806001600160a01b0316836001600160a01b031603610ac25760405162461bcd60e51b815260206004820152602160248201527f4552433732313a20617070726f76616c20746f2063757272656e74206f776e656044820152603960f91b60648201526084015b60405180910390fd5b336001600160a01b0382161480610ade5750610ade81336122a6565b610b505760405162461bcd60e51b815260206004820152603d60248201527f4552433732313a20617070726f76652063616c6c6572206973206e6f7420746f60448201527f6b656e206f776e6572206f7220617070726f76656420666f7220616c6c0000006064820152608401610ab9565b610b5a8383612792565b505050565b60008111610bb95760405162461bcd60e51b815260206004820152602160248201527f50726963652073686f756c642062652067726561746572207468616e207a65726044820152606f60f81b6064820152608401610ab9565b6000855111610c0a5760405162461bcd60e51b815260206004820181905260248201527f4e616d652073686f756c642062652067726561746572207468616e207a65726f6044820152606401610ab9565b610c1642610e10613910565b8211610c345760405162461bcd60e51b8152600401610ab990613923565b6000845111610c955760405162461bcd60e51b815260206004820152602760248201527f4465736372697074696f6e2073686f756c642062652067726561746572207468604482015266616e207a65726f60c81b6064820152608401610ab9565b6000835111610cf25760405162461bcd60e51b8152602060048201526024808201527f496d61676555726c2073686f756c642062652067726561746572207468616e206044820152637a65726f60e01b6064820152608401610ab9565b610d00600880546001019055565b610d086131a5565b600854808252602080830188815260408085018890526060850189905233608086015260a085018690524260c086015260e085018790526000938452600f8352808420805460ff1916600190811790915585518552600d909352909220835181559151839291820190610d7b90826139c1565b5060408201516002820190610d9090826139c1565b5060608201516003820190610da590826139c1565b5060808201516004820180546001600160a01b0319166001600160a01b0390921691909117905560a0820151600582015560c0820151600682015560e0820151600782015561010080830151600890920180546101208501516101408601516101609096015161ffff1990921694151561ff001916949094179315159092029290921763ffff00001916620100009315159390930263ff000000191692909217630100000092151592909202919091179055505050505050565b610e693382612800565b610e855760405162461bcd60e51b8152600401610ab990613a81565b610b5a83838361285f565b610e986129c3565b6000818152600f602052604090205460ff16610ec65760405162461bcd60e51b8152600401610ab990613ace565b6000818152600d6020526040902060050154341015610f1c5760405162461bcd60e51b8152602060048201526012602482015271496e73756666696369656e742066756e647360701b6044820152606401610ab9565b6000818152600d602052604090206008015460ff1615610f4e5760405162461bcd60e51b8152600401610ab990613afa565b426000828152600d602052604090206007015411610fa35760405162461bcd60e51b815260206004820152601260248201527113999d081cd85b19481a185cc8195b99195960721b6044820152606401610ab9565b6000818152600d6020526040902060040180546001600160a01b0319811633179091556001600160a01b0316610fd7613217565b6000838152600e602081815260408084208054808752868401898152338885019081528a8852600d865293872060058082015460608b019081524260808c0190815260079384015460a08d0190815299895260018087018855968b52978a208b519390950290940191825591519381019390935592516002830180546001600160a01b039092166001600160a01b03199092169190911790555160038201559151600483015591519181019190915560c08301516006909101805460e085015115156101000261ff00199315159390931661ffff1990911617919091179055600c80543492906110c8908490613910565b90915550506000838152600d6020526040902060080154610100900460ff16611118576110f53384612a1c565b6000838152600d60205260409020600801805461ff001916610100179055611123565b61112382338561285f565b611131600a80546001019055565b336001600160a01b0316826001600160a01b0316847f2500946fd5fc5241ae99ad991f3a929fd0d7037a57107d0f5ec5b45cd591c608600d60008881526020019081526020016000206005015460405161118d91815260200190565b60405180910390a46000838152600d60205260409020600501543411156111d5576000838152600d60205260409020600501546111d59033906111d09034613b27565b612ba7565b50506111e16001600755565b50565b6000828152600f602052604090205460ff166112125760405162461bcd60e51b8152600401610ab990613ace565b6000828152600d60205260409020600401546001600160a01b031633148061124457506006546001600160a01b031633145b61129e5760405162461bcd60e51b815260206004820152602560248201527f4f6e6c7920746865206f776e65722063616e207472616e73666572206f776e65604482015264072736869760dc1b6064820152608401610ab9565b6000828152600d60205260409020600401546112c4906001600160a01b0316828461285f565b6000918252600d602052604090912060040180546001600160a01b0319166001600160a01b03909216919091179055565b6060600060015b6008548111611332576000818152600e602052604090205461131e9083613910565b91508061132a816138a7565b9150506112fc565b508067ffffffffffffffff81111561134c5761134c613495565b60405190808252806020026020018201604052801561138557816020015b611372613217565b81526020019060019003908161136a5790505b509150600060015b60085481116109865760005b6000828152600e602052604090205481101561148b576000828152600e602052604090208054829081106113cf576113cf6138fa565b600091825260209182902060408051610100808201835260079094029092018054835260018101549483019490945260028401546001600160a01b0316908201526003830154606082015260048301546080820152600583015460a082015260069092015460ff808216151560c085015291900416151560e0820152855186908590811061145f5761145f6138fa565b60200260200101819052508280611475906138a7565b9350508080611483906138a7565b915050611399565b5080611496816138a7565b91505061138d565b610b5a83838360405180602001604052806000815250611c71565b6000818152600260205260408120546001600160a01b0316806105df5760405162461bcd60e51b8152602060048201526018602482015277115490cdcc8c4e881a5b9d985b1a59081d1bdad95b88125160421b6044820152606401610ab9565b6060600e6000838152602001908152602001600020805480602002602001604051908101604052809291908181526020016000905b828210156115df57600084815260209081902060408051610100808201835260078702909301805482526001808201548387015260028201546001600160a01b0316938301939093526003810154606083015260048101546080830152600581015460a08301526006015460ff808216151560c0840152939004909216151560e0830152908352909201910161154e565b505050509050919050565b60006001600160a01b0382166116545760405162461bcd60e51b815260206004820152602960248201527f4552433732313a2061646472657373207a65726f206973206e6f7420612076616044820152683634b21037bbb732b960b91b6064820152608401610ab9565b506001600160a01b031660009081526003602052604090205490565b611678612c3b565b6116826000612c95565b565b6060600060015b60085481116116d1576000818152600d602052604081206008015460ff16151590036116bf57816116bb816138a7565b9250505b806116c9816138a7565b91505061168b565b508067ffffffffffffffff8111156116eb576116eb613495565b60405190808252806020026020018201604052801561172457816020015b6117116131a5565b8152602001906001900390816117095790505b509150600060015b6008548111610986576000818152600d602052604081206008015460ff16151590036119cd57600d6000828152602001908152602001600020604051806101800160405290816000820154815260200160018201805461178b906138c0565b80601f01602080910402602001604051908101604052809291908181526020018280546117b7906138c0565b80156118045780601f106117d957610100808354040283529160200191611804565b820191906000526020600020905b8154815290600101906020018083116117e757829003601f168201915b5050505050815260200160028201805461181d906138c0565b80601f0160208091040260200160405190810160405280929190818152602001828054611849906138c0565b80156118965780601f1061186b57610100808354040283529160200191611896565b820191906000526020600020905b81548152906001019060200180831161187957829003601f168201915b505050505081526020016003820180546118af906138c0565b80601f01602080910402602001604051908101604052809291908181526020018280546118db906138c0565b80156119285780601f106118fd57610100808354040283529160200191611928565b820191906000526020600020905b81548152906001019060200180831161190b57829003601f168201915b505050918352505060048201546001600160a01b0316602082015260058201546040820152600682015460608201526007820154608082015260089091015460ff808216151560a08401526101008083048216151560c08501526201000083048216151560e0850152630100000090920416151591015284518590849081106119b3576119b36138fa565b602002602001018190525081806119c9906138a7565b9250505b806119d7816138a7565b91505061172c565b6000868152600f602052604090205460ff16611a0d5760405162461bcd60e51b8152600401610ab990613ace565b6000868152600d60205260409020600401546001600160a01b03163314611a765760405162461bcd60e51b815260206004820181905260248201527f4f6e6c7920746865206f776e65722063616e20656469742074686973204e46546044820152606401610ab9565b60008111611ac65760405162461bcd60e51b815260206004820152601f60248201527f5072696365206d7573742062652067726561746572207468616e207a65726f006044820152606401610ab9565b6000855111611b0e5760405162461bcd60e51b81526020600482015260146024820152734e616d652063616e6e6f7420626520656d70747960601b6044820152606401610ab9565b6000845111611b5f5760405162461bcd60e51b815260206004820152601b60248201527f4465736372697074696f6e2063616e6e6f7420626520656d70747900000000006044820152606401610ab9565b6000835111611bb05760405162461bcd60e51b815260206004820152601860248201527f496d61676555726c2063616e6e6f7420626520656d70747900000000000000006044820152606401610ab9565b611bbc42610e10613910565b8211611bda5760405162461bcd60e51b8152600401610ab990613923565b6000868152600d60205260409020600101611bf586826139c1565b506000868152600d60205260409020600301611c1185826139c1565b506000868152600d60205260409020600201611c2d84826139c1565b506000958652600d60205260409095206005810195909555600790940193909355505050565b60606001805461099b906138c0565b611c6d338383612ce7565b5050565b611c7b3383612800565b611c975760405162461bcd60e51b8152600401610ab990613a81565b611ca384848484612db5565b50505050565b6060611cb482612733565b6000611ccb60408051602081019091526000815290565b90506000815111611ceb5760405180602001604052806000815250611d16565b80611cf584612de8565b604051602001611d06929190613b3a565b6040516020818303038152906040525b9392505050565b611d256131a5565b6000828152600f602052604090205460ff16611d535760405162461bcd60e51b8152600401610ab990613ace565b600d60008381526020019081526020016000206040518061018001604052908160008201548152602001600182018054611d8c906138c0565b80601f0160208091040260200160405190810160405280929190818152602001828054611db8906138c0565b8015611e055780601f10611dda57610100808354040283529160200191611e05565b820191906000526020600020905b815481529060010190602001808311611de857829003601f168201915b50505050508152602001600282018054611e1e906138c0565b80601f0160208091040260200160405190810160405280929190818152602001828054611e4a906138c0565b8015611e975780601f10611e6c57610100808354040283529160200191611e97565b820191906000526020600020905b815481529060010190602001808311611e7a57829003601f168201915b50505050508152602001600382018054611eb0906138c0565b80601f0160208091040260200160405190810160405280929190818152602001828054611edc906138c0565b8015611f295780601f10611efe57610100808354040283529160200191611f29565b820191906000526020600020905b815481529060010190602001808311611f0c57829003601f168201915b505050918352505060048201546001600160a01b0316602082015260058201546040820152600682015460608201526007820154608082015260089091015460ff808216151560a08401526101008083048216151560c08501526201000083048216151560e0850152630100000090920416151591015292915050565b611fae6129c3565b6000818152600f602052604090205460ff16611fdc5760405162461bcd60e51b8152600401610ab990613ace565b6000818152600d60205260409020600401546001600160a01b031633148061200e57506006546001600160a01b031633145b6120505760405162461bcd60e51b8152602060048201526013602482015272556e617574686f72697a656420656e7469747960681b6044820152606401610ab9565b6000818152600d602052604090206008015460ff16156120825760405162461bcd60e51b8152600401610ab990613afa565b6000818152600d602052604090206008015462010000900460ff16156120e15760405162461bcd60e51b815260206004820152601460248201527313999d08185b1c9958591e481c185a59081bdd5d60621b6044820152606401610ab9565b6000818152600d6020526040902060080154610100900460ff166121385760405162461bcd60e51b815260206004820152600e60248201526d13999d081b9bdd081b5a5b9d195960921b6044820152606401610ab9565b6000818152600d6020526040902060050154600c5481111561219c5760405162461bcd60e51b815260206004820152601d60248201527f496e73756666696369656e7420636f6e74726163742062616c616e63650000006044820152606401610ab9565b6000612710600b54836121af9190613b69565b6121b99190613b80565b905060006121c78284613b27565b6000858152600d60205260409020600401549091506121ef906001600160a01b031682612ba7565b61220a6122046006546001600160a01b031690565b83612ba7565b6000848152600d60205260408120600801805462ff0000191662010000179055600c805485929061223c908490613b27565b90915550506000848152600d60209081526040918290206004015482518481529182018590526001600160a01b03169186917fa793f81e354cbd408a3be83dbfe2346c9ed473b8740679ba1e47ab8bc2b7237f910160405180910390a35050506111e16001600755565b6001600160a01b03918216600090815260056020908152604080832093909416825291909152205460ff1690565b6060600060015b60085481116123755760005b6000828152600e6020526040902054811015612362576000828152600e60205260409020805433919083908110612320576123206138fa565b60009182526020909120600260079092020101546001600160a01b031603612350578261234c816138a7565b9350505b8061235a816138a7565b9150506122e7565b508061236d816138a7565b9150506122db565b508067ffffffffffffffff81111561238f5761238f613495565b6040519080825280602002602001820160405280156123c857816020015b6123b5613217565b8152602001906001900390816123ad5790505b509150600060015b60085481116109865760005b6000828152600e6020526040902054811015612513576000828152600e60205260409020805433919083908110612415576124156138fa565b60009182526020909120600260079092020101546001600160a01b031603612501576000828152600e60205260409020805482908110612457576124576138fa565b600091825260209182902060408051610100808201835260079094029092018054835260018101549483019490945260028401546001600160a01b0316908201526003830154606082015260048301546080820152600583015460a082015260069092015460ff808216151560c085015291900416151560e082015285518690859081106124e7576124e76138fa565b602002602001018190525082806124fd906138a7565b9350505b8061250b816138a7565b9150506123dc565b508061251e816138a7565b9150506123d0565b61252e612c3b565b6001600160a01b0381166125935760405162461bcd60e51b815260206004820152602660248201527f4f776e61626c653a206e6577206f776e657220697320746865207a65726f206160448201526564647265737360d01b6064820152608401610ab9565b6111e181612c95565b6000818152600f602052604090205460ff166125ca5760405162461bcd60e51b8152600401610ab990613ace565b6000818152600d60205260409020600401546001600160a01b03163314806125fc57506006546001600160a01b031633145b61263e5760405162461bcd60e51b8152602060048201526013602482015272556e617574686f72697a656420656e7469747960681b6044820152606401610ab9565b6000818152600d6020526040902060080154610100900460ff161561269a5760405162461bcd60e51b815260206004820152601260248201527113999d08185b1c9958591e481b5a5b9d195960721b6044820152606401610ab9565b6000818152600d602052604090206008015460ff16156126cc5760405162461bcd60e51b8152600401610ab990613afa565b6126d581612e7b565b6127155760405162461bcd60e51b815260206004820152601160248201527013999d081c99599d5b990819985a5b1959607a1b6044820152606401610ab9565b6000908152600d60205260409020600801805460ff19166001179055565b6000818152600260205260409020546001600160a01b03166111e15760405162461bcd60e51b8152602060048201526018602482015277115490cdcc8c4e881a5b9d985b1a59081d1bdad95b88125160421b6044820152606401610ab9565b600081815260046020526040902080546001600160a01b0319166001600160a01b03841690811790915581906127c7826114b9565b6001600160a01b03167f8c5be1e5ebec7d5bd14f71427d1e84f3dd0314c0f7b2291e5b200ac8c7c3b92560405160405180910390a45050565b60008061280c836114b9565b9050806001600160a01b0316846001600160a01b03161480612833575061283381856122a6565b806128575750836001600160a01b031661284c84610a1e565b6001600160a01b0316145b949350505050565b826001600160a01b0316612872826114b9565b6001600160a01b0316146128985760405162461bcd60e51b8152600401610ab990613ba2565b6001600160a01b0382166128fa5760405162461bcd60e51b8152602060048201526024808201527f4552433732313a207472616e7366657220746f20746865207a65726f206164646044820152637265737360e01b6064820152608401610ab9565b826001600160a01b031661290d826114b9565b6001600160a01b0316146129335760405162461bcd60e51b8152600401610ab990613ba2565b600081815260046020908152604080832080546001600160a01b03199081169091556001600160a01b0387811680865260038552838620805460001901905590871680865283862080546001019055868652600290945282852080549092168417909155905184937fddf252ad1be2c89b69c2b068fc378daa952ba7f163c4a11628f55a4df523b3ef91a4505050565b600260075403612a155760405162461bcd60e51b815260206004820152601f60248201527f5265656e7472616e637947756172643a207265656e7472616e742063616c6c006044820152606401610ab9565b6002600755565b6001600160a01b038216612a725760405162461bcd60e51b815260206004820181905260248201527f4552433732313a206d696e7420746f20746865207a65726f20616464726573736044820152606401610ab9565b6000818152600260205260409020546001600160a01b031615612ad75760405162461bcd60e51b815260206004820152601c60248201527f4552433732313a20746f6b656e20616c7265616479206d696e746564000000006044820152606401610ab9565b6000818152600260205260409020546001600160a01b031615612b3c5760405162461bcd60e51b815260206004820152601c60248201527f4552433732313a20746f6b656e20616c7265616479206d696e746564000000006044820152606401610ab9565b6001600160a01b038216600081815260036020908152604080832080546001019055848352600290915280822080546001600160a01b0319168417905551839291907fddf252ad1be2c89b69c2b068fc378daa952ba7f163c4a11628f55a4df523b3ef908290a45050565b6000826001600160a01b03168260405160006040518083038185875af1925050503d8060008114612bf4576040519150601f19603f3d011682016040523d82523d6000602084013e612bf9565b606091505b5050905080610b5a5760405162461bcd60e51b815260206004820152600e60248201526d14185e5b595b9d0819985a5b195960921b6044820152606401610ab9565b6006546001600160a01b031633146116825760405162461bcd60e51b815260206004820181905260248201527f4f776e61626c653a2063616c6c6572206973206e6f7420746865206f776e65726044820152606401610ab9565b600680546001600160a01b038381166001600160a01b0319831681179093556040519116919082907f8be0079c531659141344cd1fd0a4f28419497f9722a3daafe3b4186f6b6457e090600090a35050565b816001600160a01b0316836001600160a01b031603612d485760405162461bcd60e51b815260206004820152601960248201527f4552433732313a20617070726f766520746f2063616c6c6572000000000000006044820152606401610ab9565b6001600160a01b03838116600081815260056020908152604080832094871680845294825291829020805460ff191686151590811790915591519182527f17307eab39ab6107e8899845ad3d59bd9653f200f220920489ca2b5937696c31910160405180910390a3505050565b612dc084848461285f565b612dcc84848484612fcc565b611ca35760405162461bcd60e51b8152600401610ab990613be7565b60606000612df5836130cd565b600101905060008167ffffffffffffffff811115612e1557612e15613495565b6040519080825280601f01601f191660200182016040528015612e3f576020820181803683370190505b5090508181016020015b600019016f181899199a1a9b1b9c1cb0b131b232b360811b600a86061a8153600a8504945084612e4957509392505050565b6000805b6000838152600e6020526040902054811015612fc3576000838152600e6020526040902080546001919083908110612eb957612eb96138fa565b906000526020600020906007020160060160016101000a81548160ff021916908315150217905550612f68600e60008581526020019081526020016000208281548110612f0857612f086138fa565b906000526020600020906007020160020160009054906101000a90046001600160a01b0316600e60008681526020019081526020016000208381548110612f5157612f516138fa565b906000526020600020906007020160030154612ba7565b6000838152600e60205260409020805482908110612f8857612f886138fa565b906000526020600020906007020160030154600c6000828254612fab9190613b27565b90915550819050612fbb816138a7565b915050612e7f565b50600192915050565b60006001600160a01b0384163b156130c257604051630a85bd0160e11b81526001600160a01b0385169063150b7a0290613010903390899088908890600401613c39565b6020604051808303816000875af192505050801561304b575060408051601f3d908101601f1916820190925261304891810190613c76565b60015b6130a8573d808015613079576040519150601f19603f3d011682016040523d82523d6000602084013e61307e565b606091505b5080516000036130a05760405162461bcd60e51b8152600401610ab990613be7565b805181602001fd5b6001600160e01b031916630a85bd0160e11b149050612857565b506001949350505050565b60008072184f03e93ff9f4daa797ed6e38ed64bf6a1f0160401b831061310c5772184f03e93ff9f4daa797ed6e38ed64bf6a1f0160401b830492506040015b6d04ee2d6d415b85acef81000000008310613138576d04ee2d6d415b85acef8100000000830492506020015b662386f26fc10000831061315657662386f26fc10000830492506010015b6305f5e100831061316e576305f5e100830492506008015b612710831061318257612710830492506004015b60648310613194576064830492506002015b600a83106105df5760010192915050565b6040518061018001604052806000815260200160608152602001606081526020016060815260200160006001600160a01b031681526020016000815260200160008152602001600081526020016000151581526020016000151581526020016000151581526020016000151581525090565b604051806101000160405280600081526020016000815260200160006001600160a01b031681526020016000815260200160008152602001600081526020016000151581526020016000151581525090565b6001600160e01b0319811681146111e157600080fd5b60006020828403121561329157600080fd5b8135611d1681613269565b60005b838110156132b757818101518382015260200161329f565b50506000910152565b600081518084526132d881602086016020860161329c565b601f01601f19169290920160200192915050565b600061018082518452602083015181602086015261330c828601826132c0565b9150506040830151848203604086015261332682826132c0565b9150506060830151848203606086015261334082826132c0565b915050608083015161335d60808601826001600160a01b03169052565b5060a083015160a085015260c083015160c085015260e083015160e0850152610100808401516133908287018215159052565b5050610120838101511515908501526101408084015115159085015261016092830151151592909301919091525090565b6000602080830181845280855180835260408601915060408160051b870101925083870160005b8281101561341657603f198886030184526134048583516132ec565b945092850192908501906001016133e8565b5092979650505050505050565b602081526000611d1660208301846132c0565b60006020828403121561344857600080fd5b5035919050565b80356001600160a01b038116811461346657600080fd5b919050565b6000806040838503121561347e57600080fd5b6134878361344f565b946020939093013593505050565b634e487b7160e01b600052604160045260246000fd5b600067ffffffffffffffff808411156134c6576134c6613495565b604051601f8501601f19908116603f011681019082821181831017156134ee576134ee613495565b8160405280935085815286868601111561350757600080fd5b858560208301376000602087830101525050509392505050565b600082601f83011261353257600080fd5b611d16838335602085016134ab565b600080600080600060a0868803121561355957600080fd5b853567ffffffffffffffff8082111561357157600080fd5b61357d89838a01613521565b9650602088013591508082111561359357600080fd5b61359f89838a01613521565b955060408801359150808211156135b557600080fd5b506135c288828901613521565b9598949750949560608101359550608001359392505050565b6000806000606084860312156135f057600080fd5b6135f98461344f565b92506136076020850161344f565b9150604084013590509250925092565b6000806040838503121561362a57600080fd5b8235915061363a6020840161344f565b90509250929050565b602080825282518282018190526000919060409081850190868401855b828110156136d0578151805185528681015187860152858101516001600160a01b031686860152606080820151908601526080808201519086015260a0808201519086015260c08082015115159086015260e0908101511515908501526101009093019290850190600101613660565b5091979650505050505050565b6000602082840312156136ef57600080fd5b611d168261344f565b60008060008060008060c0878903121561371157600080fd5b86359550602087013567ffffffffffffffff8082111561373057600080fd5b61373c8a838b01613521565b9650604089013591508082111561375257600080fd5b61375e8a838b01613521565b9550606089013591508082111561377457600080fd5b5061378189828a01613521565b9350506080870135915060a087013590509295509295509295565b600080604083850312156137af57600080fd5b6137b88361344f565b9150602083013580151581146137cd57600080fd5b809150509250929050565b600080600080608085870312156137ee57600080fd5b6137f78561344f565b93506138056020860161344f565b925060408501359150606085013567ffffffffffffffff81111561382857600080fd5b8501601f8101871361383957600080fd5b613848878235602084016134ab565b91505092959194509250565b602081526000611d1660208301846132ec565b6000806040838503121561387a57600080fd5b6138838361344f565b915061363a6020840161344f565b634e487b7160e01b600052601160045260246000fd5b6000600182016138b9576138b9613891565b5060010190565b600181811c908216806138d457607f821691505b6020821081036138f457634e487b7160e01b600052602260045260246000fd5b50919050565b634e487b7160e01b600052603260045260246000fd5b808201808211156105df576105df613891565b60208082526030908201527f456e642074696d652073686f756c64206265206174206c65617374203120686f60408201526f757220696e207468652066757475726560801b606082015260800190565b601f821115610b5a57600081815260208120601f850160051c8101602086101561399a5750805b601f850160051c820191505b818110156139b9578281556001016139a6565b505050505050565b815167ffffffffffffffff8111156139db576139db613495565b6139ef816139e984546138c0565b84613973565b602080601f831160018114613a245760008415613a0c5750858301515b600019600386901b1c1916600185901b1785556139b9565b600085815260208120601f198616915b82811015613a5357888601518255948401946001909101908401613a34565b5085821015613a715787850151600019600388901b60f8161c191681555b5050505050600190811b01905550565b6020808252602d908201527f4552433732313a2063616c6c6572206973206e6f7420746f6b656e206f776e6560408201526c1c881bdc88185c1c1c9bdd9959609a1b606082015260800190565b60208082526012908201527113999d08191bd95cc81b9bdd08195e1a5cdd60721b604082015260600190565b60208082526013908201527213999d08185b1c9958591e4819195b195d1959606a1b604082015260600190565b818103818111156105df576105df613891565b60008351613b4c81846020880161329c565b835190830190613b6081836020880161329c565b01949350505050565b80820281158282048414176105df576105df613891565b600082613b9d57634e487b7160e01b600052601260045260246000fd5b500490565b60208082526025908201527f4552433732313a207472616e736665722066726f6d20696e636f72726563742060408201526437bbb732b960d91b606082015260800190565b60208082526032908201527f4552433732313a207472616e7366657220746f206e6f6e20455243373231526560408201527131b2b4bb32b91034b6b83632b6b2b73a32b960711b606082015260800190565b6001600160a01b0385811682528416602082015260408101839052608060608201819052600090613c6c908301846132c0565b9695505050505050565b600060208284031215613c8857600080fd5b8151611d168161326956fea2646970667358221220ef7f37f8ded9e18fd345d543e7936b6d1e98c16dac14cee8d72afdd66dcddcf964736f6c63430008110033",
  "linkReferences": {},
  "deployedLinkReferences": {}
}